:020000040800F2
:1000000000A00020B9020008C1020008C5020008D3
:10001000390300083D0300088503000800000000C4
:10002000000000000000000000000000453900084A
:10003000D103000800000000E5390008213A00085B
:10004000E9030008E9030008E9030008E9030008E0
:10005000E9030008E9030008E9030008E9030008D0
:10006000E9030008E9030008E9030008E9030008C0
:10007000E9030008E9030008E9030008E9030008B0
:10008000E9030008E9030008E9030008E9030008A0
:10009000DD510008E9030008E9030008E90300084E
:1000A000E9030008E9030008E9030008E903000880
:1000B000E9030008E9030008E9030008E903000870
:1000C000E9030008E9030008E9030008E903000860
:1000D000E9030008E9030008E9030008514A0008A1
:1000E000E9030008E9030008E5510008E9030008F6
:1000F000E9030008E9030008E9030008E903000830
:10010000000000000000000000000000E9030008FB
:10011000E9030008E9030008E9030008E90300080F
:10012000E9030008E9030008E9030008E9030008FF
:10013000E9030008E90300080000000000000000D7
:10014000E9030008E9030008E903000800000000D3
:10015000000000000000000000000000000000009F
:100160000000000000000000E9030008E9030008A7
:10017000E90300080000000000000000000000008B
:1001800000000000E903000800B583B001F096FE0E
:10019000384B394A1360394A136039490CE00A6810
:1001A0004B6801F10C04886803E01168196004339E
:1001B00004329842F9D82146324B9942EFD32E4B64
:1001C0001A68314B9A4204D12C4B1A682F4B9A4231
:1001D00000D0FEE7274B2E4A13602E4A13602E4BA9
:1001E0000AE0194651F8082B5B6802E00020106015
:1001F00004329A42FAD30B46284A9342F1D3244B55
:100200001B6813B9234B1B6803B1FEE701F062FEC4
:1002100001A8694601F0DEFD214C224B1C1BA410F5
:10022000002504E01E4B53F8253098470135AC42B9
:10023000F8DC1D4C1D4B1C1BA410002504E01A4BC0
:1002400053F8253098470135AC42F8DC0198009905
:1002500004F016F90546164C164B1C1BA41004E0BE
:10026000013C134B53F824309847002CF8DC284607
:1002700001F082FDBABADECA000000209801002019
:10028000EC030008040400087856341232547698BF
:10029000A00100203C3200200404000814040008DF
:1002A00014040008140400081404000814040008CE
:1002B000140400081404000808B5FFF765FF00BF28
:1002C00000BEFEE71EF0040F0CBFEFF30880EFF353
:1002D00009807146414A10472DE9F04182B0044639
:1002E0008846134B5E6B9D6B9F6A1B6B13F0020F6E
:1002F0000DD00F4BDB6A002B09DA4BF6AB6101F036
:1003000065FE20B14FF00042094BDA620CE009486B
:1003100001F074FDCDF800802046394632462B4668
:1003200001F0DCFD00BEFEE702B0BDE8F08100BFD9
:1003300000ED00E00C5F000800BEFEE71EF0040FB9
:100340000CBFEFF30880EFF309807146244A104791
:100350002DE9F04182B007468846084B5D6B9C6BE7
:100360009E6A074801F04AFDCDF8008038463146C4
:100370002A46234601F0B2FD00BEFEE700ED00E094
:100380001C5F00081EF0040F0CBFEFF30880EFF3B2
:1003900009807146134A10472DE9F04182B00746A3
:1003A0008846084B5D6B9C6B9E6A074801F026FDF2
:1003B000CDF80080384631462A46234601F08EFDAE
:1003C00000BEFEE700ED00E0285F000800BEFEE78B
:1003D00000BEFEE700BEFEE770470000D90200083D
:0C03E000510300089903000800BEFEE76E
:1003EC0020620008000000209C0100202062000810
:1003FC000000001000000010A0010020403200207E
:08040C000000001000000010C8
:1004140038B505460C46B0F1A04F0ED04F4B98426C
:100424000BD003F54073984207D003F580739842CC
:1004340003D04B48AC2101F0D3FC2368B3F5005F33
:1004440004D01BB14648AD2101F0CAFC63684BB12E
:10045400082B07D0102B05D0182B03D04048AE2111
:1004640001F0BEFCA3686BB3402B2BD0802B29D0AA
:10047400C02B27D0B3F5807F24D0B3F5A07F21D043
:10048400B3F5C07F1ED0B3F5E07F1BD0B3F5007F7A
:1004940018D0B3F5107F15D0B3F5207F12D0B3F583
:1004A400307F0FD0B3F5407F0CD0B3F5507F09D027
:1004B400B3F5607F06D0B3F5707F03D02848AF2131
:1004C40001F08EFCE36863B1B3F5806F09D0B3F536
:1004D400006F06D0B3F5406F03D02148B02101F07E
:1004E4007FFC23692BB1202B03D01D48B12101F0DF
:1004F40077FC6369B3F5805F04D01BB11848B2215F
:1005040001F06EFCA369B3F1007F04D01BB1144861
:10051400B32101F065FC237F013BDBB20F2B03D930
:100524000F48B42101F05CFCEA680E4B13402168CB
:1005340062681143A2681143E268114322691143BE
:1005440062691143A2690A431343EB602B6B23F0E6
:100554000F02237F013B13432B6338BD000100507E
:10056400AC5B000807C0FFFD0023036043608360A9
:10057400C36003614361836101230377704700BF54
:1005840038B505460C460B68022B0CD9052B0AD04E
:10059400062B08D0072B06D0092B04D02C484FF487
:1005A4009B7101F01DFC63686BB1B3F5803F0AD009
:1005B400B3F5003F07D0B3F5403F04D0244840F2E0
:1005C400371101F00DFCE36833B1022B04D020484D
:1005D4004FF49C7101F004FCA36853B1B3F5004FD0
:1005E40007D0B3F5404F04D0194840F2391101F057
:1005F400F7FB237C0F2B04D915484FF49D7101F0B0
:10060400EFFBB5F1A04F02D0124B9D4204D1124B27
:100614009B681249194003E0114B9B680F4919402C
:10062400226863681A43A3681343E26843EA023208
:10063400237C42EA03230B43B5F1A04F02D0054AC1
:10064400954202D1044A936038BD054A936038BD8F
:10065400AC5B00080001005000030050E010FCFFF8
:100664000007005038B504460D46B0F1A04F0FD036
:10067400104B98420CD003F54073984208D003F510
:100684008073984204D00C4840F2891101F0A8FB11
:10069400012D04D908484FF4C57101F0A1FB25B11F
:1006A400A36843F00103A36038BDA36843F00203C9
:1006B400A36038BD00010050AC5B000810B50446CF
:1006C400B0F1A04F0FD00A4B98420CD003F5407301
:1006D400984208D003F58073984204D005484FF43B
:1006E400D07101F07DFBA36843F00043A36010BD0B
:1006F40000010050AC5B000810B50446B0F1A04FF7
:100704000FD0094B98420CD003F54073984208D09F
:1007140003F58073984204D004484FF4D77101F074
:100724005FFBD4F8B40010BD00010050AC5B0008BE
:1007340038B504460D46B0F1A04F0FD0104B984287
:100744000CD003F54073984208D003F580739842A7
:1007540004D00C484FF4E77101F042FB3DB1B5F110
:10076400804F04D0074840F2CF1101F039FBA36851
:1007740023F08043A360A3681D43A56038BD00BF78
:1007840000010050AC5B000810B50446B0F1A04F66
:100794000FD00B4B98420CD003F54073984208D00D
:1007A40003F58073984204D0064840F2DF1101F04B
:1007B40017FBA368002B01DA012010BD002010BD37
:1007C40000010050AC5B000838B504460D46B0F19A
:1007D400A04F0FD0124B98420CD003F540739842AF
:1007E40008D003F58073984204D00E4840F22221C9
:1007F40001F0F6FA012D04D90A4840F2232101F050
:10080400EFFAA36823F04053A36025B1A36843F033
:100814008053A36038BDA36843F00053A36038BD80
:1008240000010050AC5B0008F8B504460E461546BE
:100834001F46B0F1A04F0FD0404B98420CD003F5A7
:100844004073984208D003F58073984204D03C4822
:1008540040F29F4101F0C4FA731EDBB2112B04D99C
:1008640037484FF4946101F0BBFA072F04D9344898
:1008740040F2A14101F0B4FA042D0CD8216B05EB30
:1008840045056D001F23AB4021EA030206FA05F378
:10089400134323632CE0092D0DD8616B053D05EB53
:1008A40045056D001F23AB4021EA030206FA05F358
:1008B400134363631CE00E2D0DD8A16B0A3D05EBB9
:1008C40045056D001F23AB4021EA030206FA05F338
:1008D4001343A3630CE0E16B0F3D05EB45056D008D
:1008E4001F23AB4021EA030206FA05F31343E36333
:1008F400092E10D9A369A6F10A0101EB41010723CE
:100904008B40A26922EA0303A361A26907FA01F3F7
:100914001343A361F8BD6369731E03EB43033822D9
:1009240002FA03F3626922EA03036361626906EB74
:10093400460107FA01F313436361F8BD0001005057
:10094400AC5B000810B50446B0F1A04F0FD00A4BC1
:1009540098420CD003F54073984208D003F5807395
:10096400984204D0054840F2425101F039FAA36894
:1009740043F00403A36010BD00010050AC5B000809
:1009840010B50446B0F1A04F0FD0094B98420CD0DB
:1009940003F54073984208D003F58073984204D05D
:1009A400044840F2B15101F01BFA206C80B210BD32
:1009B40000010050AC5B000838B505460C46B0F1A8
:1009C400A04F0FD0194B98420CD003F540739842B6
:1009D40008D003F58073984204D0154840F6B2015C
:1009E40001F0FEF9631E012B19D9042C17D0082C31
:1009F40015D0102C13D0202C11D0402C0FD0802CCB
:100A04000DD0B4F5807F0AD0B4F5007F07D0B4F5DB
:100A1400806F04D0064840F6B30101F0E1F92B6879
:100A2400234201D0012038BD002038BD0001005010
:100A3400AC5B000838B5044603792BB1042B03D012
:100A44004F489F2101F0CCF96379082B07D00C2B78
:100A540005D0102B03D04A48A02101F0C1F9236826
:100A6400232B03D94648A12101F0BAF9A379012B1C
:100A740003D94348A22101F0B3F9A379002B6CD028
:100A8400226822F01F0303F1804303F582331868C0
:100A940002F01F01012202FA01F120EA01011960AA
:100AA400236823F01F053748295803F01F0302FA6F
:100AB40003F321EA03032B502079216821F01F035B
:100AC400034403F1804303F58233186801F01F01E6
:100AD40002FA01F101431960236823F01F052A4833
:100AE400295803F01F0302FA03F321EA03032B50EE
:100AF400236823F01F050430295803F01F039A408C
:100B040021EA02022A506279102A16D1236823F0BE
:100B14001F001D49455803F01F02012303FA02F286
:100B24002A434250226822F01F000431445802F044
:100B34001F0293402343435038BD216821F01F0313
:100B4400134403F1804303F58233186801F01F0155
:100B540001228A4002431A6038BD2179226822F0BA
:100B64001F030B4403F1804303F58233196802F039
:100B74001F02012000FA02F221EA02021A6038BDC3
:100B8400DC5B0008040401400804014010B504467D
:100B9400162808D9A0F11D03042B04D9064840F2F5
:100BA400511101F01DF924F01F0104F01F04012369
:100BB400A340024A8B5010BDDC5B000814040140C2
:100BC400054B1B6913F0800F05D0034B034A5A6091
:100BD40002F188325A6070470020024023016745C1
:100BE400024A136943F080031361704700200240F6
:100BF40010B5044630F03C0300D120B9034840F25C
:100C0400494101F0EDF8024BDC6010BD105C0008B6
:100C1400002002400B4BDB6813F0010F0BD1094B92
:100C2400DB6813F0100F08D1064BDB6813F0040FD8
:100C340005D003207047012070470220704704202C
:100C4400704700BF0020024010B50446FFF7E2FFE2
:100C540002E0FFF7DFFF013C012801D1002CF8D1AD
:100C640004B9052010BD00BF38B5044600F178432F
:100C7400B3F5802F04D30F484FF4857101F0B0F819
:100C84004FF43020FFF7E0FF042811D10A4D2B69FF
:100C940043F002032B616C612B6943F040032B6129
:100CA4004FF43020FFF7D0FF2B6923F002032B61B0
:100CB40038BD00BF105C00080020024030B583B08E
:100CC40004460D460023019300F17843B3F5802FC9
:100CD40004D317484FF4AD7101F082F84FF430207B
:100CE400FFF7B2FF042820D1124A136943F001032D
:100CF4001361ABB223804FF43020FFF7A5FF042823
:100D04000ED102340194019B2D0C1D804FF4302030
:100D1400FFF79AFF074A136923F00103136104E004
:100D2400044A136923F00103136103B030BD00BF0B
:100D3400105C00080020024070B505460E46B0F174
:100D4400904F16D03F4B984213D003F580639842DE
:100D54000FD003F5806398420BD003F5806398426B
:100D640007D003F58063984203D03748B92101F0D6
:100D740037F833681BB93448BA2101F031F83379B4
:100D8400032B03D93048BB2101F02AF8F379022B55
:100D940003D92D48BC2101F023F800244EE001239F
:100DA400A34032681A409A4247D13379013BDBB2FF
:100DB400012B29D87379013BDBB2022B03D92248DA
:100DC400CC2101F00DF8AA68610003238B4022EACC
:100DD4000303AB60AA6873798B401343AB60B379A8
:100DE400012B03D91848D32100F0FAFFAB889AB23B
:100DF400A1B201238B4022EA0303AB80AA88B37912
:100E04008B4013439BB2AB802B686100032202FA30
:100E140001F023EA00032B60286833798B400343F5
:100E24002B60EB68A0B24000824023EA0202EA6031
:100E3400EA68F3798B401343EB6001340F2CAED98D
:100E440070BD00BF00040048445C000838B5044687
:100E54000D46B0F1904F17D0254B984214D003F5AE
:100E64008063984210D003F5806398420CD003F558
:100E74008063984208D003F58063984204D01D48EB
:100E84004FF49C7100F0ACFF6B1E9BB2012B28D970
:100E9400042D26D0082D24D0102D22D0202D20D092
:100EA400402D1ED0802D1CD0B5F5807F19D0B5F50E
:100EB400007F16D0B5F5806F13D0B5F5006F10D054
:100EC400B5F5805F0DD0B5F5005F0AD0B5F5804F5C
:100ED40007D0B5F5004F04D0064840F2391100F0B0
:100EE4007FFF238A1D4201D0012038BD002038BD78
:100EF40000040048445C000838B504460D46B0F1CF
:100F0400904F17D00F4B984214D003F5806398424A
:100F140010D003F5806398420CD003F580639842A7
:100F240008D003F58063984204D007484FF4C47195
:100F340000F056FF25B9044840F2891100F050FF33
:100F4400A56138BD00040048445C000838B5044677
:100F54000D46B0F1904F17D00F4B984214D003F5C3
:100F64008063984210D003F5806398420CD003F557
:100F74008063984208D003F58063984204D0074800
:100F84004FF4CD7100F02CFF25B9044840F29B11B9
:100F940000F026FF258538BD00040048445C0008A5
:100FA40070B504460D461646B0F1904F17D0284B45
:100FB400984214D003F58063984210D003F58063FF
:100FC40098420CD003F58063984208D003F58063FF
:100FD400984204D01F484FF4D87100F001FF6B1EF3
:100FE4009BB2012B28D9042D26D0082D24D0102DF6
:100FF40022D0202D20D0402D1ED0802D1CD0B5F520
:10100400807F19D0B5F5007F16D0B5F5806F13D069
:10101400B5F5006F10D0B5F5805F0DD0B5F5005F64
:101024000AD0B5F5804F07D0B5F5004F04D0094874
:1010340040F2B11100F0D4FE012E04D905484FF45A
:10104400D97100F0CDFE0EB1A56170BD258570BDCE
:1010540000040048445C000870B505460C4616467A
:10106400B0F1904F17D01F4B984214D003F5806312
:10107400984210D003F5806398420CD003F5806346
:10108400984208D003F58063984204D0164840F291
:10109400032100F0A5FE0F2C04D913484FF401716D
:1010A40000F09EFE0B2E08D90E2E06D00F2E04D073
:1010B4000D4840F2052100F093FE04F007039B0065
:1010C4009E40E108083155F821200F2000FA03F36F
:1010D40022EA030345F8213055F821301E4345F830
:1010E400216070BD00040048445C000810B504464B
:1010F40045F25553984204D018B103488F2100F0AB
:101104006FFE024B1C6010BD785C0008003000408C
:1011140010B50446062803D90348A32100F060FE55
:10112400024B5C6010BD00BF785C000800300040DA
:1011340010B50446B0F5805F03D30348B02100F036
:101144004FFE024B9C6010BD785C000800300040EC
:101154004AF6AA22014B1A60704700BF00300040D3
:101164004CF6CC42014B1A60704700BF003000407F
:1011740010B50446B0F5E06F0FD0B0F5C06F0CD0D9
:10118400B0F5A06F09D0B0F5806F06D0B0F5407F00
:1011940003D00548672100F023FE44F0BF6444F403
:1011A4000034024BDC6010BDAC5C000800ED00E0D4
:1011B40010B50446C378012B03D92048812100F0DF
:1011C4000FFE63780F2B03D91C48822100F008FE20
:1011D400A3780F2B03D91948832100F001FEE3788B
:1011E40003B3174BDA68D243C2F30222C2F10400FC
:1011F4000F2323FA02F1637803FA00F2A3780B4079
:1012040013431B012278DBB20E490A4482F80033EF
:101214002378580903F01F03012202FA03F341F86B
:10122400203010BD23785A0903F01F03012199408F
:1012340002F12003034A42F8231010BDAC5C0008FD
:1012440000ED00E000E100E010B50446012805D9F6
:10125400052803D00448EF2100F0C2FD034B00220F
:101264001A701C7010BD00BFE05C00080210024040
:1012740010B50446012804D903484FF4E37100F083
:10128400AFFD024B1C6010BDE05C000860004242F0
:1012940010B50446022804D9054840F2752100F02F
:1012A4009FFD044A536823F003031C43546010BD9C
:1012B400E05C000800100240024B586800F00C008B
:1012C400704700BF00100240F0B5A44B5B6803F008
:1012D4000C03042B06D0082B08D003BBA04B0360DF
:1012E40000241FE09E4B036000241BE09B4B5C68C2
:1012F4005A68C4F38344A31C12F4803F03D1994C6D
:1013040004FB03F409E0954AD26A02F00F020132A9
:10131400934CB4FBF2F403FB04F4046002E0904B3E
:10132400036000248D494B68C3F30313DFF838E2EC
:101334001EF80350EDB2026822FA05F343604E68CA
:10134400C6F302261EF80660F6B223FA06F7876093
:101354004E68C6F3C2261EF80660F6B2F340C360B8
:10136400C96AC1F30411DFF804E23EF8111089B22E
:1013740001F0100E1FFA8EFEBEF1000F03D0B4FB75
:10138400F1F1016100E002617449C96AC1F34421C9
:10139400DFF8D8E13EF8111089B201F0100E1FFAFF
:1013A4008EFEBEF1000F03D0B4FBF1F1416100E009
:1013B40042616A49096B11F0100F02D168498161D9
:1013C40000E082616549096B11F0200F02D1644984
:1013D400C16100E0C2616149096B11F4807F06D0EC
:1013E400944204D1AE4202D16100016200E0036282
:1013F4005A49096B11F4007F06D0944204D1AE42DD
:1014040002D16400446200E043625449096B11F064
:10141400030F01D1836219E0504B1B6B03F00303EC
:10142400012B01D1826211E04C4B1B6B03F00303CF
:10143400022B03D14FF40043836207E0474B1B6B3D
:1014440003F00303032B01D1454B8362434B1B6B16
:1014540013F4403F01D1C7621CE0404B1B6B03F403
:101464004033B3F5803F01D1C26213E03B4B1B6BA9
:1014740003F44033B3F5003F03D14FF40043C36298
:1014840008E0364B1B6B03F44033B3F5403F01D106
:10149400334BC362314B1B6B13F4402F01D10763F1
:1014A4001CE02E4B1B6B03F44023B3F5802F01D1BA
:1014B400026313E0294B1B6B03F44023B3F5002FA5
:1014C40003D14FF40043036308E0244B1B6B03F484
:1014D4004023B3F5402F01D1214B03631F4B1B6BFA
:1014E40013F4401F01D147631CE01C4B1B6B03F436
:1014F4004013B3F5801F01D1426313E0174B1B6BFC
:1015040003F44013B3F5001F03D14FF400434363C6
:1015140008E0124B1B6B03F44013B3F5401F01D1D9
:101524000F4B43630D4B1B6B13F4400F01D18763C7
:10153400F0BD0A4B1B6B03F44003B3F5800F01D1DC
:101544008263F0BD054B1B6B03F44003B3F5000F3E
:101554000ED14FF400438363F0BD00BF001002407E
:1015640000127A0000093D00200000200400002041
:10157400044B1B6B03F44003B3F5400F01D1024B42
:101584008363F0BD0010024000127A0010B50446D7
:1015940000285AD0B0F5807F57D0B0F5887F54D05A
:1015A400B0F5907F51D0B0F5987F4ED0B0F5A07FC4
:1015B4004BD0B0F5A87F48D0B0F5B07F45D0B0F59A
:1015C400B87F42D0B0F5C07F3FD0B0F5C87F3CD0E3
:1015D400B0F5D07F39D0B0F5D87F36D0B0F1805F88
:1015E40033D0234B984230D003F5007398422CD06B
:1015F40003F50073984228D003F50073984224D071
:1016040003F50073984220D003F5007398421CD070
:1016140003F50073984218D003F50073984214D070
:1016240003F50073984210D003F5007398420CD070
:1016340003F50073984208D003F50073984204D070
:101644000C4840F2574100F0CBFB230F05D00A4A67
:10165400D36A23F47853D36204E0074AD36A23F4A9
:10166400F873D362044BDA6A1443DC6210BD00BF22
:1016740000200010E05C00080010024010B5044691
:10168400012804D9034840F2E94100F0A9FB024BC8
:101694001C6010BDE05C0008D800424238B5044626
:1016A4000D460E4B034003B920B90D4840F25C517E
:1016B40000F096FB012D04D9094840F25D5100F079
:1016C4008FFB25B1074B5A6914435C6138BD054A49
:1016D400536923EA0404546138BD00BFA8FF81CED6
:1016E400E05C00080010024038B504460D4620F4C2
:1016F400EF2323F0010303B920B90C4840F27F51D2
:1017040000F06EFB012D04D908484FF4B06100F0DD
:1017140067FB25B1064B9A6914439C6138BD044AA2
:10172400936923EA0404946138BD00BFE05C0008B7
:101734000010024038B504460D460E4B034003B971
:1017440020B90D4840F2AC5100F04AFB012D04D9F8
:10175400094840F2AD5100F043FB25B1074BDA696B
:101764001443DC6138BD054AD36923EA0404D46117
:1017740038BD00BFC83701CDE05C0008001002404E
:1017840010B5044601281CD011281AD0192818D0E5
:10179400212816D0412814D0592812D05A2810D004
:1017A4005B280ED05C280CD05D280AD05E2808D0B7
:1017B4005F2806D09C2804D00F4840F2736100F0E3
:1017C4000FFB630902D10D4B1B680BE0012B02D107
:1017D4000A4B1B6A06E0042B02D1084B5B6801E04C
:1017E400064B5B6A04F01F04E34013F0010F01D0C1
:1017F400012010BD002010BDE05C00080010024074
:1018040000B583B0002301931120FFF7B9FF019BBA
:1018140001330193019BB3F5A06F01D00028F3D0ED
:101824001120FFF7ADFF08B1012000E0002003B054
:101834005DF804FB30B591B004460D46584B984210
:1018440013D0A3F5744398420FD003F580639842F4
:101854000BD003F58063984207D003F58063984268
:1018640003D05048DF2100F0BBFA2B68013B4E4AFD
:10187400934203D94B48E02100F0B2FA6B6833B1CC
:10188400B3F5805F03D04748E12100F0A9FAAB68C3
:101894004BB1B3F5005F06D0B3F5405F03D04148C8
:1018A400E22100F09DFAEB684BB1B3F5806F06D0EE
:1018B400B3F5C06F03D03B48E32100F091FA2B69E4
:1018C40033F00C0200D11BB93648E42100F088FA49
:1018D4006B6963B1B3F5807F09D0B3F5007F06D09F
:1018E400B3F5407F03D02F48E52100F079FA23684F
:1018F40023F001032360636823F44053AA6813436D
:101904006360236823F4B05323F00C036968EA6826
:1019140011432A690A4313432360A36823F44073E1
:101924006A691343A36001A8FFF7CEFC1C4B9C42D9
:1019340001D10B9A0FE01D4B9C4201D10C9A0AE095
:101944001B4B9C4201D10D9A05E01A4B9C4201D1DC
:101954000E9A00E00F9A236813F4004F06D0520049
:101964002968B2FBF1F301FB132204E02968B2FBFE
:10197400F1F301FB13222968B2EB510F00D30133B9
:10198400226812F4004F06D0C3F3420223F00F037F
:101994001B041B0C13439BB2A38111B030BD00BFC9
:1019A40000380140105D00087F8D5B00004400405A
:1019B40000480040004C004038B504460D46154B25
:1019C400984214D0A3F57443984210D003F5806371
:1019D40098420CD003F58063984208D003F58063E5
:1019E400984204D00C4840F2991100F0F9F9012D05
:1019F40004D909484FF4CD7100F0F2F925B12368F8
:101A040043F00103236038BD236823F001032360FE
:101A140038BD00BF00380140105D000838B50446E9
:101A24000D46124B984214D0A3F57443984210D03B
:101A340003F5806398420CD003F58063984208D084
:101A440003F58063984204D0094840F2A13100F0C4
:101A5400C7F9B5F5007F04D3054840F2A23100F080
:101A6400BFF9C5F30805258538BD00BF003801401E
:101A7400105D000810B504460D4B984214D0A3F530
:101A84007443984210D003F5806398420CD003F558
:101A94008063984208D003F58063984204D00548D7
:101AA40040F2B13100F09CF9A08CC0F3080010BDE5
:101AB40000380140105D000870B505460C46164616
:101AC400314B984214D0A3F57443984210D003F5D7
:101AD400806398420CD003F58063984208D003F5E4
:101AE4008063984204D0294840F2FD6100F078F9FF
:101AF400B4F5847F29D0264B9C4226D0A3F1011350
:101B04009C4222D0A3F101139C421ED0A3F10113E5
:101B14009C421AD01F4B9C4217D01F4B9C4214D09E
:101B2400B4F5407F11D01D4B9C420ED003F101133C
:101B34009C420AD01A4B9C4207D01A4B9C4204D0B8
:101B4400124840F2FE6100F04BF9012E04D90F480F
:101B540040F2FF6100F044F92A46C4F30721E4B2DD
:101B64000123A340022901D12A1D03E0032901D145
:101B740005F108021EB111680B43136070BD1168B2
:101B840021EA0303136070BD00380140105D0008B2
:101B940007010700060208000A0309001A010B00E6
:101BA4000E0111001603140038B504460D462F4BE0
:101BB400984214D0A3F57443984210D003F580637F
:101BC40098420CD003F58063984208D003F58063F3
:101BD400984204D026484FF4F16100F001F9012D38
:101BE4003CD0802D3AD0402D38D0202D36D0102D29
:101BF40034D0B5F5807F31D0B5F5007F2ED0082DD7
:101C04002CD0042D2AD0022D28D0B5F5806F25D0F4
:101C1400B5F5006F22D0B5F5805F1FD0B5F5804FC4
:101C24001CD0B5F5004F19D0B5F5803F16D0B5F5E9
:101C3400003F13D0B5F5802F10D0B5F5002F0DD08F
:101C4400B5F5801F0AD0B5F5001F07D0B5F5800F94
:101C540004D0074840F2897100F0C2F8E3692B42CE
:101C640001D0012038BD002038BD00BF003801403C
:101C7400105D000838B505460C46354B984214D023
:101C8400A3F57443984210D003F5806398420CD0B6
:101C940003F58063984208D003F58063984204D02A
:101CA4002C4840F2DB7100F09BF8B4F5847F31D00E
:101CB400294B9C422ED0A3F101139C422AD0A3F1BC
:101CC40001139C4226D0A3F101139C4222D0234B42
:101CD4009C421FD0224B9C421CD0224B9C4219D0C8
:101CE400A3F580339C4215D0A3F580339C4211D0D8
:101CF4001D4B9C420ED003F101139C420AD01B4B96
:101D04009C4207D01A4B9C4204D0124840F2DC712A
:101D140000F066F8C4F30722E1B201238B40012AE4
:101D240002D12A68134006E0022A02D16A681340ED
:101D340001E0AA681340240C0122A240E9690A4088
:101D440013B11AB9002038BD002038BD012038BDB8
:101D540000380140105D0008070107000602080072
:101D64000A030900000303001A010B000E0111000D
:101D740016031400FEE700BF08B5034800F056F848
:101D84000120FFF7F7FF00BF445D000808B50D4BC5
:101D94001B6813B90C4A0B4B1A600A4B1A68C31C14
:101DA40023F00303134409498B4206D903F06AFA6A
:101DB4000C2303604FF0FF3008BD02490B6010464E
:101DC40008BD00BFA401002040320020009C002078
:101DD40001230360014B0B60704700BF30000020FB
:101DE40008B503460A460348194600F005F8FFF70C
:101DF400C3FF00BF985D00080FB400B583B004AB07
:101E040053F8042B01930848802103F0D7FA011EEC
:101E140003DD054800F04CF80146084603B05DF8C0
:101E240004EB04B0704700BFAC01002010B50446B9
:101E340003F066FA0146204600F03AF80248012110
:101E440000F036F810BD00BF885E00082DE9F043AD
:101E540085B004460F46435C13BB0425284621463F
:101E6400ABBE04461FE03546102E28BF10250023C4
:101E740006E014F8011B04AA1A4402F8101C0133EA
:101E8400AB42F6D304AA1344002203F8102CE9460B
:101E94004FF0040840464946ABBE8046761B00E03E
:101EA4000E46002EDFD1384605B0BDE8F08300BFF2
:101EB40008B5FFF7CBFF08BD08B500F0EDF8024BFD
:101EC400024A9A6008BD00BF00ED00E0000000086F
:101ED40008B500F013F908BDF8B504460D461746D9
:101EE4001E462648FFF788FF25482168FFF784FF30
:101EF40024486168FFF780FF2348A168FFF77CFF4F
:101F04002248E168FFF778FF21482169FFF774FF51
:101F140020486169FFF770FF1F48A169FFF76CFF54
:101F24001E48E169FFF768FF1D48FFF765FF1D487C
:101F34002946FFF761FF1C4CE16A1C48FFF75CFF70
:101F4400216B1B48FFF758FFE16B1A48FFF754FF5A
:101F540015F0800F03D018483946FFF74DFF15F4EC
:101F6400004F03D015483146FFF746FF1448FFF7EA
:101F740043FF14480699FFF73FFFF8BDF05D0008E2
:101F8400005E0008105E0008205E0008305E000855
:101F9400405E0008505E0008605E0008705E000845
:101FA400805E00088C5E000800ED00E09C5E000886
:101FB400AC5E0008BC5E0008CC5E0008DC5E000875
:101FC400EC5E0008F45E000883691A888A4207D12F
:101FD4000268033A012A05D802338361012070475D
:101FE400002070470020704782B0002301930093C3
:101FF400274A136843F480331360254B1B6803F4AA
:1020040000330093019B01330193009B1BB9019B97
:10201400B3F5A06FF1D11E4B1B6813F4003F02D03F
:102024000123009301E000230093009B012B2CD19A
:102034001222184B1A60A3F580535A685A605A68E2
:102044005A605A6842F480625A605A6822F47C12D8
:102054005A605A6842F4E8125A601A6842F0807270
:102064001A600B4B1B6813F0007FFAD0084B5A68B8
:1020740022F003025A605A6842F002025A60044B8A
:102084005B6803F00C03082BF9D102B0704700BF62
:10209400001002400020024008B5144B1A6842F0B8
:1020A40001021A605968124A0A405A601A6822F0FA
:1020B400847222F480321A601A6822F480221A6030
:1020C4005A6822F4FE025A60DA6A22F00F02DA62D7
:1020D400196B084A0A401A6300229A60FFF784FFCA
:1020E4004FF00062044B9A6008BD00BF001002402C
:1020F4000CC07FF8CCFC00FF00ED00E01D4B5B68DA
:1021040003F00C03042B06D0082B08D01BBB1A4A7F
:102114001A4B1A6022E0184A184B1A601EE0154A3E
:1021240053685268C3F38343023312F4803F05D1EA
:10213400134A02FB03F3114A13600FE00D4AD26AFB
:1021440002F00F0201320C49B1FBF2F203FB02F37D
:102154000A4A136002E0084A084B1A60054B5B68A0
:10216400C3F30313074AD25CD2B204490B68D340C9
:102174000B6070470010024000127A0048000020F3
:1021840000093D003800002008B520B9064B1B6843
:1021940001221A8208BD054B1B681B689847024B35
:1021A40018680A3008BD00BF342E0020302E0020ED
:1021B40008B520B9064B1B6801221A8208BD054BDD
:1021C4001B689B689847024B18680C3008BD00BF19
:1021D400342E0020302E002008B520B9294B1B686E
:1021E40002221A8208BD0022274B1A80254B1A6846
:1021F400137813F07F0315D1537A13F0200F02D014
:102204000221214A117013F0400F05D01E4A1378A1
:1022140043F0010313702BE01B4A137823F00103EE
:10222400137025E0012B29D0022B29D1527902F019
:102234000F0312F0800F0DD09B0003F1804303F5D0
:10224400B8431B6803F03003102B11D101220E4B4D
:102254001A700DE09B0003F1804303F5B8431B683B
:1022640003F44053B3F5805F02D10122064B1A7088
:10227400064B1B681B699847034808BD024808BD04
:10228400002008BD342E0020D42B0020302E002046
:10229400F8B5254B1D682C8A2B7AD4B9042B18D198
:1022A400224B1B78012B0FD1214B1B68214A12FAB8
:1022B40083F35B0000221A805A8030211E4B198060
:1022C4001A4B1A7004262BE010221B4B1A80072687
:1022D40026E0AB8A9C4201D8042600E00226A342F1
:1022E40000D81C46AB69A4B2204698470746002094
:1022F40001F0CAF901463846224600F09DFE00204E
:10230400214601F0E1F92B8A1B1B2B826B8A1C44AA
:102314006C823022084B1A804FF44052074B1A80CB
:10232400014B1B681E72F8BD342E00202C020020C5
:10233400505C0040023000203C2E00203A2E002049
:1023440010B582B07C4B1A685378062B16D11378DB
:1023540013F07F0F78D19378012B03D1774B1B684F
:10236400DB6990E0022B03D1744B1B681B6A8AE083
:10237400032B6BD1714B1B685B6A84E0002B41D14A
:10238400518800293ED1516821F47F41B1F5003FC5
:1023940038D1137813F07F0302D19188002957D0E4
:1023A400012B0DD1654B1B689B695079002198471F
:1023B40000284FD1604B1B689B7A002B4CD162E004
:1023C400022B4BD1537903F00F0203F0700013F08A
:1023D400800F08D0930003F1804303F5B8431B68D2
:1023E40003F0300307E0930003F1804303F5B8439F
:1023F4001B6803F4405352490978914230D988BB91
:1024040093BB40E0082B05D1137813F07F0F2DD038
:10241400002338E00A2B2BD1137803F07F03012B20
:1024240028D1937A43B3538843BB536823F47F433F
:10243400B3F5803F24D1414B1B689B69507900213F
:102444009847F8B100231EE000231CE000231AE0A3
:102454003C4B18E0002316E03A4B14E0002312E052
:10246400002310E000230EE0364B0CE0364B0AE06C
:10247400002308E0002306E0002304E0002302E038
:10248400002300E0314B43B12B4A126800245482EC
:1024940093612046984720460DE0284B1B681B6932
:1024A400254A126850789847032804D1224B1B68A8
:1024B40009221A723EE0204B1B681A8A4FF6FF71FC
:1024C4008A4202D109221A7234E0022800D012B9D9
:1024D40008221A722EE093F90010002924DAD98810
:1024E40001910198824202D9019A1A8214E08A4227
:1024F40012D21249096891F82C1088B2824203D290
:102504000021134A117007E092FBF1F001FB102245
:1025140012B901210E4A1170084A126892F82C204F
:102524009A82FFF7B5FE05E003221A724FF4405277
:10253400084B1A8002B010BD342E00200C2E00204F
:102544002C010020DD2100088D210008B5210008A0
:102554002C0200203A2E002070B5254B1C68228ADC
:10256400A369B3B1AAB1A18A914200D80A4695B22F
:10257400284698470646238A5B1B2382638A2B449A
:102584006382002001F090F8014630462A4600F0AC
:1025940069FD238A53B14FF44052164B1A80002030
:1025A400014601F091F83022134B1A80238AA28A43
:1025B400934204D30E4B1B6803221A7270BD23B1DD
:1025C4000B4B1B6805221A7270BD7BB9084B1B6844
:1025D40006221A72094B1B68094A12FA83F35B003C
:1025E40000221A805A803022034B1A8070BD00BF2B
:1025F400342E00203A2E00203C2E0020505C004057
:102604000230002008B50C4B1B68DA780B49497876
:102614008A420AD8997851B9998851B99A72084B63
:102624001B685B689847002008BD022008BD022093
:1026340008BD022008BD00BF342E00202C0100205C
:10264400302E002010B5134B1B689A69124C236876
:102654005879D978904723689A7A82B188B91A79D7
:102664008AB99B788BB990B90C4B1B68DB68984787
:1026740023685A79DA72DA781A73002010BD0220BE
:1026840010BD022010BD022010BD022010BD02208A
:1026940010BD00BF0C2E0020342E0020302E002050
:1026A400454B1A68137813F07F0305D1537A23F04E
:1026B4002003537200207047022B70D15388002BE3
:1026C4006FD11379002B6ED110B5517921F08000B0
:1026D40011F0800F08D0830003F1804303F5B84361
:1026E4001B6803F0300307E0830003F1804303F524
:1026F400B8431B6803F44053304C2478844254D9C3
:10270400002B54D0937A002B53D011F0800F12D0A9
:10271400830003F1804303F5B8431B6803F03003DF
:10272400102B36D1C4B2204600F07AFF2046302167
:1027340000F0EEFE2DE0840004F1804404F5B8447A
:10274400236803F44053B3F5805F22D190B91C4B46
:1027540093F82C1000F0C6FF23689BB223F4804347
:1027640023F0700383F4405343F4004343F08003A5
:1027740023600EE000F040FF23689BB223F4804303
:1027840023F0700383F4405343F4004343F0800385
:1027940023600C4B1B685B699847002010BD022026
:1027A40070470220704702207047022010BD0220AB
:1027B40010BD022010BD00BF342E00202C010020CB
:1027C400A8000020302E002010B52D4B1868417948
:1027D40021F0800211F0800F08D0930003F18043B0
:1027E40003F5B8431B6803F0300307E0930003F1DB
:1027F400804303F5B8431B6803F44053214C247809
:10280400A24235D24488002C34D1002B34D0837AB0
:10281400002B33D011F0800F12D0930003F18043CA
:1028240003F5B8431A6892B222F4E04222F040025F
:1028340082F0100242F4004242F080021A6011E079
:10284400930003F1804303F5B8431A6892B222F46B
:10285400804222F0700282F4805242F4004242F03C
:1028640080021A60084B1B689B699847002010BDC2
:10287400022010BD022010BD022010BD022010BD98
:10288400342E00202C010020302E002008B5064BE9
:102894001A68537A43F020035372044B1B68DB69B4
:1028A4009847002008BD00BF342E0020302E0020A1
:1028B40010B53F4B1A685478137813F07F032DD169
:1028C400092C02D1FFF79EFE4CE0052C0ED192F9A3
:1028D4000330002B5DDB9378002B5CD19388002BB5
:1028E4005BD1937A002B5AD100203BE0032C07D113
:1028F400D378012B25D193882BBBFFF7C7FF31E099
:10290400012C22D1D378012B21D193880BBB537A8C
:1029140013F0200F1FD0FFF7C3FE23E0012B04D1D7
:102924000B2C1AD1FFF78EFE1CE0022B17D1012CC1
:1029340002D1FFF7B5FE15E0032C12D1FFF744FFD7
:1029440010E002200EE002200CE002200AE0022047
:1029540008E0022006E0022004E0022002E0022057
:1029640000E0022030B1134B1B685B692046984796
:10297400032816D0B8B9104B1B68104A12FA83F317
:102984005B0000221A805A8030220D4B1A800622E6
:102994000AE0082208E0082206E0082204E00822EF
:1029A40002E0092200E00822014B1B681A7210BDE4
:1029B400342E00200C2E0020505C004002300020F9
:1029C4003C2E0020054B1A68538A20B98888C31A04
:1029D400138200207047086818447047342E002082
:1029E40008B500200A4B93F82C1000F07BFE094B2D
:1029F4001B68187A082806D14FF48052064B1A80B7
:102A04001022064B1A80092814BF0020012008BD9B
:102A1400A8000020342E00203A2E00203C2E002056
:102A240070B51B4B1B681B4A12FA83F35B001B68CF
:102A34009BB25B0003F1804303F5C043164A12685E
:102A4400117A092916D05D1C19781170124C22686C
:102A54005B7853702668B5F8030000F075FE70804B
:102A64002668B5F8070000F06FFEB0802368B5F85B
:102A74000B20DA80084B1B6801221A72DB8813B919
:102A8400FFF716FF01E0FFF75BFCFFF7A9FF70BD3E
:102A9400505C004004300020342E002008B5124B56
:102AA4001B681B7A022B13D0042B13D0032B01D0E9
:102AB400052B05D1FFF750FD0B4B1B681A7A0CE070
:102AC400072B09D1094B1B68DB689847082204E0EF
:102AD400082202E0082200E00822034B1B681A7255
:102AE400FFF77EFF08BD00BF342E00200C2E00200F
:102AF40030B40F4B1D78002411E0E1B28A0002F1DA
:102B0400804202F5B842136823F0F0031B051B0D45
:102B140043F4004343F080030B4313600134AC429D
:102B2400EBD340F08000034B186030BC704700BF0B
:102B34002C0100204C5C004008B5154B1A68137A30
:102B4400022B01D0042B05D1FFF7A2FB104B1B680D
:102B54001A7A16E0062B13D15378052B0AD1137871
:102B640013F07F0F06D1D078FFF7C2FF094B1B6823
:102B74001B6A9847084B1B689B689847082200E02B
:102B84000822034B1B681A72FFF72AFF08BD00BF17
:102B9400342E0020302E00200C2E0020704700BF61
:102BA400704700BF08B5032000F0BEFDC2B205485F
:102BB40080F8882052B24FF4887192B200F052FA31
:102BC40008BD00BFF02C002008B5074B074A13606E
:102BD40002221A72064B074A13600749074A11601A
:102BE4001B68984708BD00BF142E0020342E002017
:102BF400A80000200C2E0020D8000020302E002039
:102C040010B582B00023ADF806301EE1944B1B884A
:102C140003F00F03934A1370002B40F0E080924AB4
:102C2400116889B2914B1980198801F030019048DC
:102C34000180198801F440511980136823F48043FA
:102C440023F040031B041B0C83F4005383F0200384
:102C540043F4004343F080031360814B1B8803F06B
:102C640010039BB2002B39D11446136823F4E143BB
:102C740023F070031B041B0C1360FFF75DFF236834
:102C840023F4804323F040031B041B0C774A12886F
:102C940002F4805292B20AB183F48053734A1288C8
:102CA40002F4005292B20AB183F40053704A1288BB
:102CB40002F0100292B20AB183F010036C4A128837
:102CC40002F0200292B20AB183F020039BB243F4D3
:102CD400004343F08003644A1360BFE0624B1B6807
:102CE4009BB2ADF80630BDF8063003F400639BB226
:102CF400002B37D05C4C236823F070031B051B0D9D
:102D04002360FFF78DFE236823F4804323F0400300
:102D14001B041B0C554A128802F4805292B20AB169
:102D240083F48053514A128802F4005292B20AB1D9
:102D340083F400534E4A128802F0100292B20AB190
:102D440083F010034A4A128802F0200292B20AB1B8
:102D540083F020039BB243F4004343F08003424AD0
:102D640013607BE0BDF806301BB2002B6DDA3E4CDD
:102D7400236823F070031B051B0D2360FFF78EFEF1
:102D8400236823F4804323F040031B041B0C374ABD
:102D9400128802F4805292B20AB183F48053334A07
:102DA400128802F4005292B20AB183F40053304AFA
:102DB400128802F0100292B20AB183F010032C4A76
:102DC400128802F0200292B20AB183F020039BB26F
:102DD40043F4004343F08003234A13603EE09B0026
:102DE40003F1804303F5B8431A6892B2ADF80620A4
:102DF400BDF8062012B2002A0CDA1A6822F070021A
:102E04001205120D1A60174B1B78013B194A52F830
:102E140023309847BDF8063003F080039BB2A3B17A
:102E240010490B789B0003F1804303F5B8431A68FB
:102E340022F4E14222F070021204120C1A600B78A0
:102E4400013B0D4A52F8233098470C4B1B689BB248
:102E5400034A138013F4004F7FF4D8AE02B010BDC0
:102E64003E2E0020102E0020005C00403A2E002050
:102E74003C2E00208400002068000020445C0040B8
:102E840000B589B0634B1B689BB2634A13801388F7
:102E940003F40073614A1288134208D04FF6FF52BC
:102EA4005C4B1A605E4A13780133DBB213705A4BE1
:102EB4001B8803F40043594A1288134201D0FFF7D8
:102EC4009FFE554B1B8803F48063544A12881342B7
:102ED40006D04FF6FF324F4B1A60524B5B6898474F
:102EE4004D4B1B8803F400534C4A1288134203D001
:102EF4004DF6FF72474B1A60474B1B8803F480530F
:102F0400464A1288134206D04EF6FF72414B1A60AD
:102F1400002000F083FA404B1B8803F400633F4A0F
:102F2400128813420ED0404B1B7813F0FF0F02D0CF
:102F340000F0EAF902E0022000F070FA4FF2FF72AA
:102F4400344B1A60344B1B8803F48073334A128861
:102F540013425CD04FF6FF622E4B1A6004331B6899
:102F640013F4004F4DD0314B1A6801321A601B68BC
:102F7400032B49D92E4B1B6813F0080F44D12C4B5B
:102F84001B689BB22B4A136000220BE0930003F1F1
:102F9400804101F5B841096889B208A8034443F89F
:102FA400201C0132072AF1D9224B1A6842F001028F
:102FB4001A601A6892B21E490A601A6822F0010265
:102FC4001A601B689BB20B60124B1B6813F4806F72
:102FD400FAD04FF6FF320F4B1A6000220BE0930039
:102FE40003F1804101F5B84108A8034453F8203C9B
:102FF4009BB20B600132072AF1D900220B4B1A60F5
:1030040002E00022094B1A60072000F007FA09B019
:103014005DF804FB445C00403E2E0020382E002066
:1030240034020020A80000202E01002038020020D5
:10303400405C00403002002010B40132521001F113
:10304400005101F54051490007E00378447843EA10
:10305400042321F8043B0230013A002AF5D15DF83B
:10306400044B70470132521001F1005101F54051F7
:10307400490004E00B6820F8023B013A0431002ABD
:10308400F8D17047034B9B7A13B10522024B1A60A7
:10309400704700BF142E0020400200200422014B80
:1030A4001A60704740020020034B1B78202B02D18A
:1030B4000022014B1A7070473C020020704700BF89
:1030C400212808D1144B1B681B7803F07F03212BA4
:1030D40011D0002312E020280FD10F4B1B681B785E
:1030E40003F07F03212B01D0002300E00B4B2021B0
:1030F4000B4A117002E00B4B00E000234BB110B5FA
:10310400054A126893610024548220469847204659
:1031140010BD0220704700BF342E00208531000806
:103124003C0200206D310008094B1B681B7803F03A
:103134007F03212B05D1022805D0222805D00220A7
:10314400704702207047002070470020704700BF7E
:10315400342E002019B9012803D902207047022017
:1031640070470020704700BF20B9034B1B6808223A
:103174001A82704701487047342E00202401002031
:1031840020B9034B1B6808221A8270470148704714
:10319400342E00202401002010B502F029F8054B3C
:1031A4001B6800249C7200F09BF800F0D3FA024BD9
:1031B4001C6010BD342E00204002002010B5334B9B
:1031C4001B6800249C72324AD2795A72DC722046FF
:1031D40000F088F920464FF4007100F08BF9204686
:1031E400102100F095F92046402100F03DFA2046D8
:1031F400802100F029FA204600F0EEF92046254B04
:1032040093F82C1000F06EFA204600F0D1F901205A
:10321400214600F06FF90120C02100F015FA0120C9
:10322400202100F075F90120214600F08FF90220D9
:103234004FF4C06100F05EF902204FF4807100F099
:1032440003FA0220214600F081F90220202100F037
:103254005FF90320214600F04DF903204FF48871F3
:1032640000F002FA0320402100F03CFA03204FF45E
:10327400405100F06BF90320214600F049F9204643
:10328400FFF736FC0122044B1A6010BD342E0020D7
:10329400AC5F0008A80000204002002008B50249E5
:1032A400FFF790FB08BD00BFFC00002008B50249F1
:1032B400FFF788FB08BD00BFA000002008B5064B3F
:1032C4001B68DB78042B05D8044901EBC301FFF725
:1032D40079FB08BD002008BD342E00200401002025
:1032E400064B01221A6000201860054A10604FF452
:1032F400E05204490A801A60704700BF405C0040F5
:10330400445C0040382E002082B000220192364BEB
:10331400186880B20AE0930003F1804303F5B843D0
:103324001B689BB2314941F822300132072AF2D995
:1033340040F480622C4B1A6042F001021A6020F0C3
:10334400010080B240F480621A60294B1B6813F4B8
:10335400806FFAD04FF6FF32254B1A6000220AE044
:10336400930003F1804303F5B843204951F8221038
:1033740089B219600132072AF2D940F481601A4AED
:10338400106013689BB243F00403136002F59E526D
:1033940013680193136823F0030343F001031360DC
:1033A400144A136943F004031361114B1B6813F4AB
:1033B400805F05D130BF136923F00403136111E06A
:1033C4004EF6FF720A4B1A60074A11684FF6F773FC
:1033D4000B401360019A084B1A60064A136923F0E4
:1033E4000403136102B07047405C0040442E002087
:1033F400445C004000ED00E00070004010B5064C55
:1034040022684FF6FB731340236001F00DFF4FF465
:103414003F43236010BD00BF405C004008B507284F
:1034240001D02D4B18702C4B1B78DBB2052B4FD8D9
:10343400DFE803F00310191F2C38284B1B682BB945
:10344400FFF7DCFF0622244B1A7008BD0522224B2D
:103454001A7008BDFFF7D2FF04221F4B1A70012215
:103464001E4B1A6008BD1C4B02225A7003221A70AC
:1034740008BD194A5378013BDBB25370537813F0FB
:10348400FF0F28D10422144B1A7008BD144A136884
:103494009BB243F0100313600F4B05221A700A22EB
:1034A4005A7008BD0C4A5378013BDBB25370537811
:1034B40013F0FF0F0FD10A4A11684FF6EF730B4058
:1034C40013600622044B1A700022044B1A6008BDD4
:1034D4000622014B1A7008BD402E00204402002031
:1034E400405C00404FF6F8730340014A1360704794
:1034F400505C0040800000F1804000F5B840036853
:1035040023F4EC4323F07003194389B2016070473C
:10351400800000F1804000F5B84003689BB223F4BA
:10352400E04323F040039BB201F0100292B20AB1CF
:1035340083F0100301F0200189B209B183F0200364
:1035440043F4004343F0800303607047800000F1BC
:10355400804000F5B84003689BB223F4804323F015
:1035640070039BB201F4805292B20AB183F4805387
:1035740001F4005189B209B183F4005343F40043C8
:1035840043F0800303607047800000F1804000F541
:10359400B84003689BB223F4E04323F0400383F074
:1035A400300343F4004343F080030360704700BFDB
:1035B400800000F1804000F5B84003689BB223F41A
:1035C400804323F0700383F4405343F4004343F0F7
:1035D40080030360704700BF800000F1804000F565
:1035E400B840036823F4F8731B051B0D43F4004330
:1035F40043F0800303607047800000F1804000F5D1
:10360400B840036813F4804F09D0036823F0F00333
:103614001B051B0D43F4404343F0800303607047D4
:10362400800000F1804000F5B840036813F0400FBB
:1036340009D0036823F0F0031B051B0D43F400437A
:1036440043F0C00303607047064B1B68C00010FAC8
:1036540083F000F1005000F5405040004908490053
:1036640001607047505C0040054B1B68C00010FAB5
:1036740083F0044B03445B00490849001960704718
:10368400505C004004300020064B1B68C00010FA58
:1036940083F000F1005000F540504000006880B213
:1036A400704700BF505C0040054B1B68C00010FA17
:1036B40083F0044B03445B00186880B2704700BF7A
:1036C400505C004004300020044B1B68C00010FA1A
:1036D40083F0034B03445B0019607047505C004067
:1036E400023000200E4B1B68C00010FA83F00D4B13
:1036F40003445B003E290AD94A0911F01F0F01D186
:10370400013A92B2920242F400421A6070474A08A7
:1037140011F0010F00D0013292021A60704700BF0D
:10372400505C004006300020054B1B68C00010FAB6
:1037340083F0044B03445B001868C0F3090070472E
:10374400505C004006300020C3B2000A40EA032067
:10375400704700BF0020044B18604FF43F43034AF6
:103764001380034A13607047445C0040382E0020E5
:10377400405C004070B5044600F07AFA274B1B68A1
:1037840083B9274B274A1A600020586026494FF412
:1037940020534B60086053601160244A1360012277
:1037A4001E4B1A6034B1103414F0070F02D024F009
:1037B40007040834621E42F2FE739A4227D818495D
:1037C4000B6801E0194613465A68A24202D21A68ED
:1037D400002AF7D1144A93421BD00D6810351A6899
:1037E4000A605A68121B202A0CD91E1972605C6088
:1037F40070680B4A00E01A46136859688142FAD38C
:1038040033601660094A13681C1B146002E000252B
:1038140000E0002500F08AFA284670BD4802002026
:10382400542A0020500200205C2A0020502A002044
:10383400D0B170B50546A0F1100600F019FA55F89C
:103844000C4C0A4A00E01A4613685968A142FAD39C
:1038540045F8103C166055F80C1C054A13680B44D7
:10386400136000F063FA70BD704700BF542A002053
:10387400502A002000F1080343604FF0FF328260B9
:10388400C360036100230360704700BF002303612A
:10389400704700BF43685A684A6042688A605A6841
:1038A40091605960416008610368013303607047A7
:1038B40010B40C68B4F1FF3F01D1036907E000F1D3
:1038C400080300E05B685A681268A242FAD95A6891
:1038D4004A6091608B60596008610368013303603A
:1038E4005DF8044B704700BF436882689A60836840
:1038F40042685A6003695A68824201D182685A60F8
:10390400002202611A68013A1A607047034A044BA4
:103914001A600722043B1A60704700BF3F19010078
:1039240014E000E04FF0807340F8043C40F8081CB9
:10393400002340F80C3C40F8202C4038704700BF6E
:10394400064B19680868B0E8F00F80F309884FF057
:10395400000080F311884EF00D0E7047582B0020A4
:1039640002480068006880F3088800DF08ED00E082
:1039740010B5094B1A6842F47F021A601A6842F0C3
:103984007F421A60FFF7C2FF0024044B1C60FFF75C
:10399400E7FF204610BD00BF20ED00E0300100200D
:1039A4004FF08052014B1A60704700BF04ED00E0F5
:1039B4004FF0BF0080F31188024A1368013313608B
:1039C400704700BF30010020044A1368013B1360B4
:1039D4001BB94FF0000080F31188704730010020BC
:1039E400EFF309800C4B1A6820E9F00F10602DE901
:1039F40008404FF0BF0080F3118800F06DFA4FF0DB
:103A0400000080F31188BDE8084019680868B0E830
:103A1400F00F80F309887047582B002008B54FF049
:103A24008052064B1A604FF0BF0080F3118800F0FB
:103A340027F94FF0000080F3118808BD04ED00E081
:103A440010B50446006BFFF7F3FE2046FFF7F0FEC7
:103A540010BD00BF70B506460C464820FFF78AFE2D
:103A6400054680B11CB9B000FFF784FE00E0204693
:103A7400286320B92846FFF7DBFE002503E0A521D3
:103A8400B20001F010FC284670BD00BF38B50446F2
:103A940015463430102201F055FC002384F84330DD
:103AA400092D00D90925E5626564201DFFF7EEFEA6
:103AB40004F11800FFF7EAFE2461C5F10A05A561C7
:103AC400646238BD38B5002407E004EB84039B002E
:103AD4000E481844FFF7CEFE0134092CF5D90C4DDD
:103AE4002846FFF7C7FE0B4C2046FFF7C3FE0A48E3
:103AF400FFF7C0FE0948FFF7BDFE0948FFF7BAFE0D
:103B0400084B1D60084B1C6038BD00BF882A00208C
:103B1400842B0020982B00205C2B0020742A00208A
:103B2400B02B0020682A0020782B00202DE9F043D8
:103B340083B08046894616461F4610460C99FFF707
:103B440089FF0446002849D0036B06F18045013DF6
:103B540003EB850525F00705009649460A9A0D9B57
:103B6400FFF794FF284641463A46FFF7DBFE206004
:103B7400FFF71EFF244B1A6801321A601B68012BE1
:103B840004D1224B1C60FFF79DFF0AE0204B1B6809
:103B94003BB91E4B1B68DB6A0A9A934201D81B4B44
:103BA4001C60E06A1B4B1B68984201D9194B1860D2
:103BB400194A136801331360184B1B68984201D9E2
:103BC400164B186000EB80008000154B1844211D33
:103BD400FFF760FEFFF7F8FE012501E04FF0FF3527
:103BE400012D0DD10B9B03B11C60094B1B683BB12C
:103BF400064B1B68DB6A0A9A934201D2FFF7D0FE98
:103C0400284603B0BDE8F083542B0020582B002035
:103C14006C2A0020C42B0020802B00207C2B002049
:103C2400882A002000B585B00023009301930293F5
:103C340003930B480B498022FFF778FF01280BD12F
:103C44004FF0BF0080F311880122074B1A60002255
:103C5400064B1A60FFF78CFE05B05DF804FB00BF4D
:103C6400C53E0008F05F00086C2A0020742B002079
:103C7400024A136801331360704700BF502B0020C1
:103C840038B5224B1B68002B3BD1214B1A680132FB
:103C94001A601B6843BB1F4A11681F4B18681060E9
:103CA40019601E4A1368013313601DE06268184BE3
:103CB4001B689A4229D8251D2846FFF715FEA36ADA
:103CC4001BB104F11800FFF70FFEE06A144B1B68E8
:103CD400984201D9124B186000EB80008000114B10
:103CE40018442946FFF7D6FD0A4B1B681B6823B10D
:103CF400084B1B68DB68DC6800E00024002CD5D18D
:103D040038BD094A13680133136038BD502B0020B5
:103D1400742B0020682A0020782B0020702B0020B0
:103D24007C2B0020882A0020642A002070B5FFF72D
:103D34003FFE2C4B1A68013A1A601B68002B49D1CC
:103D4400294B1B6803BB002447E004F11800FFF76C
:103D5400CBFD251D2846FFF7C7FDE06A234B1B68F2
:103D6400984201D9214B186000EB80008000204B61
:103D740018442946FFF78EFDE26A1E4B1B68DB6A76
:103D84009A4202D3012600E000261B4B1B681BB19C
:103D9400194BDB68DC6800E00024002CD5D1174BFC
:103DA4001B6833B90AE0FFF76BFF144A1368013B41
:103DB4001360124B1B68002BF5D101261EB9104B62
:103DC4001B68012B08D100220D4B1A60FFF7E8FD98
:103DD400012402E0002400E00024FFF7F5FD204662
:103DE40070BD00BF502B0020542B00207C2B0020E2
:103DF400882A0020582B00205C2B0020642A0020F5
:103E0400AC2B002070B500B30446FFF731FF114D11
:103E14002B681C44104E30680430FFF765FD33688E
:103E24005C602B689C4206D20C4B186831680431E4
:103E3400FFF73EFD06E00A4B1868074B196804318A
:103E4400FFF736FDFFF772FF00E0002008B9FFF727
:103E5400A7FD70BD742B0020582B0020782B002068
:103E6400682A0020134B1B6813B310B5FFF700FF3B
:103E7400114B1C68FFF75AFFCCB1FFF799FD0E4BAD
:103E84001B681BB10C4BDB68DC6800E00024201DC0
:103E9400FFF72AFD094A1368013B1360054A1368BA
:103EA400013B1360FFF790FD2046FFF7C9FD10BDED
:103EB400704700BF702A0020742A0020542B002071
:103EC40008B5FFF7CFFF034B1B68012BF9D9FFF7A8
:103ED40067FDF6E7882A00201B4B1B683BB10122D3
:103EE4001A4B1A6070471A4A1368013B1360184B47
:103EF4001B6803EB83039B00164AD358002BF2D0B4
:103F040010B4134B1B6814469A00D118890021443D
:103F14004868406848601A4492000832224490423B
:103F240005D1416803EB830292002244516003EB04
:103F340083039B00074A13445B68DA68064B1A60E4
:103F44005DF8044B704700BF502B0020AC2B0020C1
:103F54007C2B0020882A0020582B00202DE9F041DA
:103F640090B0454B30221A705A709A70DA704FF440
:103F740080200121FDF792FB04270E9701258DF87F
:103F84003C5000248DF83E4003268DF83D608DF8AA
:103F94003F40DFF8EC8040460EA9FCF7CDFE4046DA
:103FA4003946FCF7A9FF2046FDF7F0FA33482946C5
:103FB400FDF774FB0E958DF83C608DF83F404FF093
:103FC40090400EA9FCF7B8FE06A8FCF7CDFA4FF016
:103FD400A0402946FCF7F8FB0520FFF713FF0194E6
:103FE4004FF480330293039404948DF814404FF0FB
:103FF400A0400DEB0701FCF7C3FA4FF0A0402146A7
:10400400FCF796FB4FF0A040FCF758FB4FF0A040A4
:10401400FCF7BAFB0028F9D14FF0A040FCF76CFB89
:104024004FF40053069300230793089309930A93CC
:104034000B930C9301248DF834404FF0A04006A953
:10404400FCF7E6F94FF0A040214622460723FCF78F
:10405400EBFB4FF0A0402146FCF704FB4FF0A040DF
:104064000121FCF7A9FC0028F8D04FF0A040FCF790
:1040740069FC10B0BDE8F081642E0020000002103D
:104084000004004838B5002425460EE04FF0A04057
:104094000421FCF791FC0028F8D04FF0A040FCF775
:1040A4006FFC284485B20134E4B263B2032BEDDD26
:1040B400AD0840F2645303FB05F5044B83FB052371
:1040C400ED17C5EBA325024B9D8038BDAD8BDB6896
:1040D400642E002008B5184B9A88B2F57A7F04D371
:1040E4001846164901F0E8F808BDA2F164039BB232
:1040F400B3F5617F07D21048302300F8013B0F4924
:1041040001F0DAF808BDA2F10A039BB2592B08D8D2
:1041140009483023037043700230084901F0CCF899
:1041240008BD05483023037043708370033003498E
:1041340001F0C2F808BD00BF642E0020F85F00083B
:1041440008B5FFF70BFFFFF79DFFFFF7C3FFC8207C
:10415400FFF758FEF7E700BF10B5044600218022A0
:1041640001F0A1F8C4F88040C4F88440002384F826
:10417400883010BD034653F8802F9A4201D1C0F80D
:104184008000D0F880305A1CC0F88020197090F854
:104194008830013380F88830704700BF00B583B0A1
:1041A4004FF480200121FDF779FA4FF480530093F6
:1041B40001238DF8043000238DF8063003228DF896
:1041C40005208DF8073003486946FCF7B5FD03B0B8
:1041D4005DF804FB0004004810B5FFF7DFFF03227D
:1041E400174B1A70174B93F90130302B02D104226C
:1041F400134B1A70134B93F90230302B03D1104A2E
:104204001378013313700F4B93F90330302B03D120
:104214000B4A137801331370094B1C7807E0C8204C
:10422400FFF7F0FDC820FFF7EDFD013CE4B263B2F7
:10423400002BF4DC4FF4C870FFF7E4FDCFE700BFB8
:10424400742E0020782E002008B503484FF48051C6
:10425400FCF752FE08BD00BF0004004808B503483F
:104264004FF48051FCF772FE08BD00BF0004004803
:1042740070B506460D46FCF7A3FC3420FCF7B8FCE9
:104284000948FCF7F1FC002408E004F1007000F593
:10429400004080003157FCF711FD0134A542F4D8E9
:1042A400FCF79EFC70BD00BF00000208002207E07E
:1042B40002F1007303F500439B001B688354013231
:1042C4009142F5D8704700BFF0B583B02E4B00245F
:1042D4001C705C709C70DC701C715C714FF48020ED
:1042E4000121FDF7DBF94FF41043009301258DF80C
:1042F40004508DF8064003268DF805608DF80740BC
:1043040022486946FCF718FD4FF400202946FDF7C2
:10431400C5F94FF4825300938DF804508DF806408C
:104324008DF805608DF80740194F38466946FCF74B
:1043340003FD4FF400302946FDF7B0F94FF4C06394
:1043440000938DF804508DF806408DF805608DF8C3
:1043540007404FF090406946FCF7EEFC4FF4002014
:104364002946FDF79BF9802300938DF804508DF8BE
:1043740006408DF805608DF8074038466946FCF71D
:10438400DBFC03B0F0BD00BF6C2E0020000400482D
:104394000008004810B5FFF797FF0024344B1B7842
:1043A4002BB934484FF40041FCF7A6FD04E0314832
:1043B4004FF40041FCF7CAFD2D4B5B7823B92E481E
:1043C4004021FCF799FD03E02B484021FCF7BEFD9A
:1043D400274B5B7923B928488021FCF78DFD13E036
:1043E4005BB2012B04D124488021FCF7AFFD0BE024
:1043F4002CB921488021FCF77FFD012404E01E48EC
:104404008021FCF7A3FD0024194B9B782BB91A4893
:104414004FF48051FCF770FD04E017484FF48051CD
:10442400FCF794FD124BDB7833B94FF090404FF416
:104434008061FCF761FD05E04FF090404FF480612E
:10444400FCF784FD0A4B1B7933B94FF090404FF4CD
:104454000071FCF751FD05E04FF090404FF40071FE
:10446400FCF774FDFCF774FEC820FFF7CBFC95E75E
:104474006C2E0020000400480008004830B585B0C8
:104484003C4B3D4A5A60F0213C4A82F823100024F8
:104494009C6007221A6045F25550FCF727FE032062
:1044A400FCF736FE40F6CA00FCF742FEFCF750FE6D
:1044B400FCF756FE022500950194029403943048BB
:1044C4003049B2222346FFF731FB00950194029450
:1044D40003942D482D49B2222346FFF727FB00956C
:1044E4000194029403942A482A49B2222346FFF7EE
:1044F4001DFB009501940294039427482749B22296
:104504002346FFF713FB0095019402940394244877
:104514002449B2222346FFF709FB00950194029433
:10452400039421482149B2222346FFF7FFFA00955C
:104534000194029403941E481E49B2222346FFF7B5
:10454400F5FA00950194029403941B481B49E42254
:104554002346FFF7EBFA009501940294039418485C
:104564001849E4222346FFF7E1FAFFF75BFB05B0A5
:1045740030BD00BF10E000E03F19010000ED00E095
:10458400214B0008FC5F0008254C00080860000867
:10459400254E0008186000085D4900082C600008DA
:1045A400994300083C600008DD41000848600008A9
:1045B400894A00085860000805500008686000082F
:1045C40045410008746000082DE9F0418AB03B4D74
:1045D4002846FFF7C1FD8C3D2846FFF7BDFD30237B
:1045E40085F81831002485F85D414FF440200121FD
:1045F400FDF754F84FF480200121FDF79BF84FF4A8
:104604000067019701258DF808508DF80A408DF850
:104614000B404FF003088DF80980294E304601A95C
:10462400FCF78AFB30463946FCF766FCA6F5806643
:1046340030460A210722FCF70FFD30460B210722E2
:10464400FCF70AFD4FF48063019302238DF80830D0
:104654008DF80A408DF80B508DF80980304601A979
:10466400FCF76AFB0197304601A9FCF765FB4FF4A0
:104674006143049305940694079409940C230893C6
:10468400104E304604A9FDF7D5F830460E492A46A7
:10469400FDF712FA27238DF80C308DF80D408DF8B4
:1046A4000E408DF80F5003A8FCF782FD30462946D2
:1046B400FDF782F90AB0BDE8F08100BF6431002043
:1046C40000080048004800400501050010B51848DE
:1046D40018490D2200F01CFE60B96420FFF792FB1C
:1046E400154C164821460A2200F0D2FDA4F10E0012
:1046F400FFF732FD0E4812490A2200F009FE38B9CC
:104704006420FFF77FFB0A48FFF726FD002400E042
:10471400012407480B490C2200F0FAFD30B964204B
:10472400FFF770FB0248FFF717FD0024204610BD79
:10473400D830002008610008E63000204C3000200A
:10474400186100082461000870B506460D4600246F
:104754000CE03157074889B2FDF760F9054880211C
:10476400FDF722FA0028F9D00134E4B2AC42F0DBC0
:1047740070BD00BF0048004070B5694C20464FF43E
:104784000061FCF7E3FB4FF47A70FFF73BFB204634
:104794004FF40061FCF7B0FB4FF47A70FFF732FB83
:1047A40020464FF40061FCF7D1FB4FF47A70FFF719
:1047B40029FB5C4C20465C490C2200F069FDA4F105
:1047C4008C052846FFF7C8FC20460C21FFF7BCFFE8
:1047D400C820FFF717FB20465449122200F058FD69
:1047E4002846FFF7B9FC20461221FFF7ADFFC82089
:1047F400FFF708FB20464E490F2200F049FD2846EA
:10480400FFF7AAFC20460F21FFF79EFFC820FFF701
:10481400F9FA20464749102200F03AFD2846FFF7EE
:104824009BFC20461021FFF78FFFC820FFF7EAFA10
:10483400204641490F2200F02BFD2846FFF78CFC4F
:1048440020460F21FFF780FFC820FFF7DBFA204640
:104854003A49322200F01CFD2846FFF77DFC204631
:104864003221FFF771FFC820FFF7CCFA2046344904
:10487400222200F00DFD2846FFF76EFC204622217F
:10488400FFF762FFC820FFF7BDFA20462D4910222A
:1048940000F0FEFC2846FFF75FFC20461021FFF7DE
:1048A40053FFC820FFF7AEFA04F1BD06304629468F
:1048B400102200F0EDFC20462349102200F0E8FC11
:1048C40004F10F003146102200F0E2FC04F11F0055
:1048D4001E49022200F0DCFC2846FFF73DFC20467E
:1048E4002121FFF731FFC820FFF78CFA2046184931
:1048F400102200F0CDFC2846FFF72EFC20461021A4
:10490400FFF722FFC820FFF77DFA28461149042249
:1049140000F0FEFC08B9012070BD002070BD00BF8E
:1049240000080048643100208460000834610008F5
:1049340048610008586100086C610008A060000824
:10494400E4600008D4600008906000084461000836
:10495400A86100087C61000810B50024234B83F88B
:104964005E41FFF731FE214B93F95E3113B1012B08
:104974002AD037E063B2022B1BDCFFF7FDFE0128CF
:1049840009D11A4B012283F85E2119490A70312298
:1049940083F8182126E00022154B1A703022134B9D
:1049A40083F818210134E4B242F21070FFF72AFAB6
:1049B40018E000240E4B1C7030220C4B83F8182195
:1049C4000C48FFF71FFA0DE0FFF780FE50B90022F4
:1049D400074B1A70054B302183F818110134E4B2E7
:1049E40083F85E216420FFF70DFABCE7D83000207D
:1049F4006C2E0020C0270900F8B507460D46104C60
:104A04002046FFF7A9FB04F18C063046FFF7A4FB10
:104A140030460C49102200F03BFC04F19C0039465E
:104A24002A4600F035FC60199C300749022200F048
:104A34002FFC05F11201304649B2FFF785FEF8BD9F
:104A4400D8300020846100084461000808B5064895
:104A54000649FDF70FF930B10348FDF70BF841B2F1
:104A64000348FFF787FB08BD004800400501050027
:104A7400D830002008B50248FFF76EFB08BD00BF20
:104A84004C30002008B5FFF7F5FF0A4B93F90930C5
:104A9400312B06D13022074B5A720122064B1A7071
:104AA40002E03022034B5A724FF4FA70FFF7AAF96E
:104AB400EBE700BF483000209C2F002010B5134ABC
:104AC4001178134B19715178597191789971D17882
:104AD400D971104991F8181119723020587214794B
:104AE4009C725279DA7218730B4A14785C73547896
:104AF4009C739478DC73D2781A74587449B231294F
:104B040003D1181D0E21FFF777FF10BD782E00206A
:104B140048300020D8300020642E002010B5FFF764
:104B2400A9FF0024FFF7CAFF01343B2C03DD002456
:104B3400034B83F85E414EF66020FFF763F9F1E71B
:104B4400D830002070B582B0314B30221A705A70C0
:104B54009A70DA701A715A719A71DA711A725A72F9
:104B64009A72DA724FF49C000121FCF797FD4FF41E
:104B74008063009300248DF8044003258DF80550CC
:104B84008DF8074023486946FCF7D6F820230093A4
:104B94008DF804408DF805508DF807404FF0904093
:104BA4006946FCF7C9F8802600968DF804408DF814
:104BB40005508DF807404FF090406946FCF7BCF86B
:104BC400102300938DF804408DF805508DF80740AC
:104BD40011486946FCF7B0F800968DF804408DF84A
:104BE40005508DF807400D4E30466946FCF7A4F891
:104BF4004FF4807300938DF804408DF805508DF8C0
:104C0400074030466946FCF797F802B070BD00BF14
:104C1400782E0020000800480014004800040048D2
:104C240008B5FFF78FFF6A484FF48061FCF70EF96F
:104C3400012803D10122674B9A7102E00022654BDF
:104C44009A714FF090402021FCF700F918B9012225
:104C5400604BDA7102E000225E4BDA714FF0904053
:104C64008021FCF7F3F818B901225A4B1A7202E0BA
:104C74000022584B1A7258481021FCF7E7F818B96B
:104C84000122544B5A7202E00022524B5A7253488A
:104C94008021FCF7DBF8012803D101224D4B9A72E5
:104CA40002E000224B4B9A724C484FF48071FCF79F
:104CB400CDF8012803D10122464BDA7202E000222A
:104CC400444BDA726420FFF79DF841484FF4806149
:104CD400FCF7BCF801280BD13E4B93F90630012BAD
:104CE40006D131223B4B1A7001223D4B5A7005E02C
:104CF4003022384B1A700022394B5A704FF09040D2
:104D04002021FCF7A3F840B9324B93F90730012B6B
:104D140003D131222F4B5A7002E030222D4B5A70AE
:104D24004FF090408021FCF791F840B9294B93F95A
:104D34000830012B03D13122264B9A7002E0302235
:104D4400244B9A7024481021FCF780F840B9214B79
:104D540093F90930012B03D131221E4BDA7002E0A2
:104D640030221C4BDA701D488021FCF76FF80128B3
:104D74000BD1184B93F90A30012B06D13022154B75
:104D84001A710122164BDA7005E03122114B1A71A7
:104D94000022134BDA7011484FF48071FCF756F877
:104DA40001280BD10B4B93F90B30012B06D1312287
:104DB400084B5A7101220A4B1A7105E03022054B47
:104DC4005A710022064B1A716420FFF71BF82AE778
:104DD40000080048782E0020001400480004004811
:104DE4006C2E002000B583B04FF480200121FCF725
:104DF40055FC4FF40073009301238DF80430002315
:104E04008DF8063003228DF805208DF8073003480D
:104E14006946FBF791FF03B05DF804FB000400480A
:104E240008B5FFF7DFFF114B93F90030012B19D1BF
:104E34000F4D28464FF40071FCF75EF80D4C01232A
:104E4400A370FFF701FA41F28830FEF7DBFF284632
:104E54004FF40071FCF77AF80023044A1370A3702E
:104E6400FFF7FCF96420FEF7CDFFDCE79C2F002060
:104E7400000400486C2E002030B4002310E0040F1E
:104E8400092C03D8303401F8134002E0373401F818
:104E9400134000015C00013400250D550133DBB2E1
:104EA4009342ECD330BC704770B586B0384C204682
:104EB400FFF752F904F18C00FFF74EF94FF08050E0
:104EC4000121FCF737FC01200146FCF70DFC4FF4EF
:104ED40000100121FCF7E2FB4FF400300121FCF744
:104EE400DDFB4FF4C053049303238DF815300226E1
:104EF4008DF8146000258DF816508DF817504FF07A
:104F0400904004A9FBF718FF4FF090400B210E22AC
:104F1400FCF7A2F84FF090400C210E22FCF79CF80D
:104F24001220FBF733FE122302938DF80C50082352
:104F34008DF80D3001248DF80E400DEB0300FBF7C6
:104F440079FD2846FCF79AFB4FF400002146FCF754
:104F5400F1FB4FF4A060FCF70BF914238DF8043037
:104F64008DF805608DF806508DF8074001A8FCF710
:104F74001FF92A238DF804308DF805408DF8074079
:104F840001A8FCF715F9FDF71FFE06B070BD00BFC0
:104F9400F02C002030B583B04FF400300121FCF731
:104FA4007DFB4FF48055009501238DF804300024D7
:104FB4008DF8064003238DF805308DF807404FF037
:104FC40090406946FBF7B8FE4FF0904029462246D0
:104FD400FBF7E6FF03B030BD10B58CB2C02122460A
:104FE400FEF72AF801202146FEF76EFB0120FEF7AA
:104FF400CBFA10BD08B50320FEF7DAFA08BD00BFEE
:1050040008B5FFF7C7FF4FF4FA70FEF7FBFEFFF792
:105014004BFFFFF7EFFF5F485F49062200F078F986
:10502400002866D15D485E49052200F071F988B90F
:105034006420FEF7E7FE5B4D5B4C28462146482280
:1050440000F026F928464821FFF712F9A4F10C00D4
:10505400FFF782F851485549042200F059F9002815
:1050640047D16420FEF7CEFE514C20464821FFF77D
:105074001DF9504D28464849062200F009F9A81D9B
:105084002146482200F004F994F94530292B0CD12B
:10509400A5F18C000D2380F8D8300A2380F8D9308C
:1050A4008C304E21FFF798FF20E03E4B93F9D2302D
:1050B400292B0BD137480D2380F8D9300A2380F8E7
:1050C400DA308C304F21FFF787FF0FE0354B93F92F
:1050D400D330292B0AD12F480D2380F8DA300A2344
:1050E40080F8DB308C305021FFF776FF2948FFF73A
:1050F40033F828483049032200F00AF970BB2F48DE
:105104002A49042200F004F9B8B96420FEF77AFEB3
:10511400284C20462A49042200F0BAF8201D2949C7
:105124000E2200F0B5F804F112002749032200F022
:10513400AFF820461521FFF74FFF204818490522F4
:1051440000F0E6F838B9134B93F90F30312B02D144
:1051540001221E4B1A700F48FEF7FEFF0D481C4932
:10516400062200F0D5F880B96420FEF74BFE114CFE
:1051740020461849102200F08BF820461021FFF732
:105184002BFFA4F18C00FEF7E7FF6420FEF73AFE44
:105194003FE700BFF02C0020B8610008F72C002086
:1051A400C0610008842E0020FC2C0020C861000887
:1051B400102F00207C2D0020D0610008F42C00204A
:1051C400D46100084C300020DC6100089C2F0020D2
:1051D400E06100082132002008B5FDF751FE08BD4A
:1051E40008B50020FEF71AF91220FBF7CFFC08BD22
:1051F40038B50A4B1B680A4A146804321068181838
:105204000AD0084D29460822FFF736FE204605F14C
:1052140010010422FFF730FE38BD00BFACF7FF1FBA
:10522400B0F7FF1F4E00002008B50120FCF70CF872
:10523400FCF7E6FA104B18701120FCF7A1FA0028CD
:10524400FAD00120FCF714F81920FCF799FA002889
:10525400FAD00220FCF71CF8FCF72EF80828FBD142
:10526400064B9B7A1BB10522054B1A6008BD01222F
:10527400034B1A6008BD00BF38320020142E0020F2
:1052840040020020014B1868704700BF94010020C1
:1052940010B5431E0A44914204D011F8014B03F89F
:1052A400014FF8E710BD02440346934202D003F8CD
:1052B400011BFAE7704700000EB400B59CB04FF430
:1052C4000271ADF814106FF00041049107914FF68C
:1052D400FF711DABADF81610084953F8042B02906A
:1052E40006900868019302A900F0D2F8029B0022FC
:1052F4001A701CB05DF804EB03B0704794010020F1
:10530400034613F8012B002AFBD1181A0138704701
:1053140070B5AAB1451E01396B7811F8014FA3424B
:1053240005F1010606D16FF00104641B1444E04248
:1053340002D11C46181B70BD3546002BECD1F8E792
:10534400104670BD10B5034632B111F8014B03F895
:10535400014B013A002CF7D11A44934203D00021A7
:1053640003F8011BF9E710BD30B5141E9BB00546C8
:1053740004DA8B2303604FF0FF301CE04FF4027219
:10538400ADF80C2014BF04F1FF32224602920592BC
:105394004FF6FF7200910491ADF80E2069461A464B
:1053A4001E9B00F075F8431CBCBF8B232B6014B10B
:1053B400009B00221A701BB030BD000073B500932F
:1053C400054B06460D461446186831462A462346C0
:1053D400FFF7CAFF02B070BD940100202DE9F04729
:1053E4008E68B34282460C469046994640D38A89D9
:1053F40012F4906F3AD0256809696F1A656902231F
:1054040005EB450595FBF3F57B1C4B449D4238BFEA
:105414001D4653050FD5294600F030FB064698B1CA
:1054240021693A46FFF734FFA38923F4906343F0DC
:105434008003A38113E02A4600F076FB064670B988
:105444005046216900F0D6FA0C23CAF80030A3892B
:1054540043F04003A3814FF0FF30BDE8F08726619D
:1054640065613E44ED1B2660A5604E46B14500D201
:105474004E4632462068414600F0A1FAA3689B1BC1
:10548400A36023681E4426600020BDE8F087000066
:105494002DE9F0439DB0064603938B891C060D4607
:1054A40090460CD50B6953B9402100F0E7FA286007
:1054B400286110B90C233360CCE040236B610023D6
:1054C400099320238DF8293030238DF82A30434660
:1054D4001C4613F8012B1AB9B4EB08090FD002E0EB
:1054E400252AF5D1F8E73046294642464B46FFF7D0
:1054F40075FF013000F0A980099B4B440993237880
:10550400002B00F0A28000234FF0FF320493079396
:10551400059206938DF853301A9304F1010844461A
:10552400DFF8489121784846052200F039FA08F15D
:105534000108049B30B1C9EB0000012282401343EF
:105544000493ECE7D80644BF20228DF853201907B2
:1055540044BF2B228DF8532022782A2A02D007999F
:1055640023460EE0039A111D12680391002ABBBF63
:10557400524243F0020307920792B8BF04930134E6
:105584000AE01C4601332278303A092A03D80A205B
:1055940000FB0121F5E7079123782E2B1AD16378BC
:1055A4002A2B0AD1039B1A1D1B680392002BB8BF38
:1055B4004FF0FF33023405930CE0611C00220C46CB
:1055C40001312378303B092B03D80A2000FB023237
:1055D400F5E70592DFF8988021784046032200F031
:1055E400DFF938B1049AC8EB000040238340134329
:1055F4000493013421781A488DF82810062204F106
:10560400010800F0CDF988B1164B33B9039B073379
:1056140023F007030833039313E003AB00933046EE
:1056240004A92A46104BAFF3008007E003AB0093B4
:10563400304604A92A460C4B00F092F8421C074657
:1056440003D0099B3B44099341E7AB895B0601D432
:10565400099801E04FF0FF301DB0BDE8F08300BFB2
:10566400F461000800000000E1530008EA6100084A
:10567400F06100082DE9F84391461F468A680B69DA
:10568400DDF820809342B8BF1346C9F8003091F882
:10569400432006460C4612B10133C9F80030236892
:1056A400990642BFD9F800300233C9F800302568A2
:1056B40015F006051CD094F843302268003318BF57
:1056C400012392061FD5E1185A1C302081F84300AB
:1056D400224494F8451082F84310023313E0304614
:1056E400394604F119020123C047013007D00135BE
:1056F400E368D9F800209B1A9D42F0DBDBE74FF00A
:10570400FF30BDE8F8833046394604F14302C04710
:105714000130F4D02268D9F80050E36802F00602A0
:10572400042A08BF5D1B2269A3680CBF25EAE5753E
:1057340000259342C4BF9B1AED184FF00009A945F8
:105744000ADA3046394604F11A020123C04701300F
:10575400D5D009F10109F2E70020BDE8F883000083
:105764002DE9FF410C461746227E6E2A98460646CE
:105774000A9B01F1430100F0AF8012D8632A23D0C1
:105784000AD8002A00F0BC80582A40F0CB8084F864
:105794004520DFF804E257E0642A1ED0692A1CD0B1
:1057A400C0E0732A00F0B08009D86F2A2ED0702A86
:1057B40040F0B880226842F0200222603FE0752A5F
:1057C40024D0782A3BD0ADE01A68111D1960136803
:1057D40084F8423004F14205A8E020681A6810F009
:1057E400800F02D0101D186008E010F0400F02F185
:1057F4000400186002D0B2F9003000E01368002BF6
:105804003EDA2D225B4284F8432039E020681A688E
:1058140010F0800F02D0101D186007E010F0400F48
:1058240002F10400186001D0138800E01368227E9E
:10583400DFF864E16F2A0CBF08220A221CE07822F8
:10584400DFF858E184F845202268186812F0800FC8
:1058540000F104051D6003D1550601D5038800E05D
:105864000368D00744BF42F0200222601BB92268BB
:1058740022F0200222601022002084F8430002E07B
:10588400DFF814E10A226568A560002DA2BF206834
:1058940020F00400206003B965B10D46B3FBF2F0BB
:1058A40002FB10331EF8033005F8013D03460028BF
:1058B400F4D100E00D46082A0BD12368DA0708D595
:1058C400236962689A42DEBF302305F8013C05F182
:1058D400FF35491B21612EE025681A68606915F0BF
:1058E400800F03D0151D1D60136808E015F0400FEC
:1058F40002F104051D60136801D0188000E01860EF
:10590400002323610D4616E01A68111D19601568FD
:1059140062682846002100F043F808B1401B60602B
:10592400636804E004F1420584F842200123236102
:10593400002384F84330CDF800803046214603AA82
:105944003B46FFF797FE013002D14FF0FF301FE0D6
:10595400304639462A462369C0470130F5D02368CA
:105964009B0705D4E068039B9842B8BF18460FE034
:105974000025E368039A9B1A9D42F3DA30463946C0
:1059840004F119020123C0470130DED00135F0E7EC
:1059940004B0BDE8F08100BFFB6100080C620008A0
:1059A40010B5C9B202449042034606D01C788C421A
:1059B40000F10100F7D1184610BD002010BD81424E
:1059C40010B501EB020301D3421E0BE09842FBD257
:1059D4008118D21AD34204D013F8014D01F8014DB5
:1059E400F8E710BD994204D011F8014B02F8014FB9
:1059F400F8E710BD30B500293DD051F8042C0B1F39
:105A04001D49002AB8BF9B180A680C4612B95A608F
:105A14000B6030BD93420DD219685818904201BFF3
:105A24005A5852181A6042685A60236030BD99422D
:105A340003D80A4651680029F9D1146815199D4202
:105A44000AD11B682344D0188842136013D1086814
:105A5400034413604B680DE002D90C23036030BD8E
:105A64001C681819884204BF08684968596004BF53
:105A740000191860536030BDCC2B002070B5CC1CCD
:105A840024F0030408340C2C38BF0C24002C0646E4
:105A940003DA0C233360002070BD8C42F9D3204A12
:105AA400136810461946A1B10A68121B0ED40B2ABA
:105AB40003D90A608B188C501FE08B420DBF5A68C3
:105AC4004A685A60026018BF0B4616E00B464968E4
